:100000000C945A000C9477000C9477000C947700B1
:100010000C9477000C9477000C9477000C94770084
:100020000C9477000C9477000C9477000C94770074
:100030000C9477000C9477000C947E000C9477005D
:100040000C9477000C9477000C9477000C94770054
:100050000C9477000C9477000C9477000C94770044
:100060000C9477000C9477000C9477000C94770034
:100070000C9477000C9477000C9477000C94770024
:100080000C9477000C9477000C9477000C94770014
:100090000C9477000C9448020C9477000C94770031
:1000A0000C9477000C9477000C9477000C947700F4
:1000B0000C94770011241FBECFEFD8E0DEBFCDBF78
:1000C00011E0A0E0B1E0E0E8FAE102C005900D9295
:1000D000AC35B107D9F721E0ACE5B1E001C01D9224
:1000E000A339B207E1F70E94A3000C943E0D0C94D3
:1000F00000000E9473020E94880108951F920F92CF
:100100000FB60F9211242F933F934F935F936F93EA
:100110007F938F939F93AF93BF93EF93FF930E942F
:10012000FB01A89AFF91EF91BF91AF919F918F91A1
:100130007F916F915F914F913F912F910F900FBEE3
:100140000F901F9018950E947900259A0E94AE0189
:10015000809160018130D1F71092600180E090E0E1
:100160000E943902882314F42D98F0CF2D9AEECFF7
:100170000895CF93C82F0E94C0028823E1F38C2FEB
:100180000E94CE020E94C6028111FCCFCF91089539
:10019000EF92FF920F931F93CF93DF9300D0CDB7D1
:1001A000DEB780915C018F7081F400E011E00F2ECA
:1001B000F3E1EF2EF1E0FF2EF02DD8018D918D01AE
:1001C0000E94B9000E151F05C1F785E50E94B90010
:1001D00080915C010E94B9001A82198289819A81FA
:1001E000892B09F053C089819A810E941202192F2C
:1001F0000E94B900812F0E94B90089819A810E94D2
:100200001F02192F0E94B900812F0E94B900898115
:100210009A810E9412028C0189819A810E941F0298
:10022000081B190B802F0E94B900812F0E94B90072
:1002300089819A810E942C02192F0E94B900812F76
:100240000E94B90089819A810E943902882324F48E
:1002500081E00E94B90003C080E00E94B90089815A
:100260009A81FC01EE0FFF1F8E0F9F1FFC01E55EC0
:10027000FE4F80810E94B90089819A8101969A83FC
:10028000898389819A81892B09F4ADCFE09141015D
:10029000F091420184810E94B900E0912A01F0911D
:1002A0002B0182818823C1F010E00F2EF8E2EF2E9F
:1002B000F1E0FF2EF02D0580F681E02DE10FF11D1C
:1002C00080810E94B9001F5FD7011296ED91FC91C9
:1002D00013978281181778F380915F010E94B9000B
:1002E00080915C0191E0980F90935C010E94B900AD
:1002F0008AEA0E94B9000F900F90DF91CF911F9171
:100300000F91FF90EF90089581E08093610108952F
:1003100088E087BDE5E6F0E080818F7E808373987A
:1003200081E491E00E94050B87E891E00E948C0B2C
:1003300060E070E081E491E00E948F0C60E070E08A
:1003400081E491E00E94AE0C42E851E060E083E17C
:1003500091E00E944A030E94B800089580916201D2
:10036000813051F464E871E081E491E00E94960BE1
:10037000811102C01092620180916101813091F57A
:10038000109261010E949E09811117C088E291E0DC
:100390000E940F07882329F082E080935F010E946A
:1003A000C80083E191E00E946903882359F083E04B
:1003B00080935F010E94C80005C081E080935F01C7
:1003C0000E94C800E0911301F091140180818823FC
:1003D00024F481E08093620103C081E08093600196
:1003E0000E94C800089581E08093620184E190E05A
:1003F0000E943F03089580915D0190915E014497B2
:1004000039F410925E0110925D010E94F30108958B
:1004100080915D0190915E01019690935E018093C1
:100420005D0108959C01220F331F220F331F820F9D
:10043000931FFC01EE57FE4F8181928108959C012C
:10044000220F331F820F931FFC01EE0FFF1FE75790
:10045000FE4F8481958108959C01220F331F220F46
:10046000331F820F931FFC01EE57FE4F838194814F
:1004700008959C01220F331F820F931F880F991F2D
:10048000E0911701F0911801E80FF91F808108959C
:100490001F920F920FB60F9211242F933F934F93F9
:1004A0005F936F937F938F939F93AF93BF93EF93DC
:1004B000FF930E94EE0CFF91EF91BF91AF919F913E
:1004C0008F917F916F915F914F913F912F910F90FD
:1004D0000FBE0F901F90189550985898519A5998A0
:1004E0000E94AF0208958DE3809365008FEF8093A3
:1004F000640094B114B895B185B997B1907897B963
:1005000098B19F6798B99AB11AB89BB18BB98DB160
:10051000807F8DB98EB18F608EB940E060E881E652
:1005200090E00E949B0213BE15BE78940E94A20226
:100530000E946C0208952FB7F894FC0160834083F9
:100540002FBF0895E4E6F0E080818F7D808382E014
:1005500084BD95E095BD80936E0080E00895E4E64B
:10056000F0E080818D7F80831092C5008CE08093C5
:10057000C4001092C00088E08093C10080E008951C
:100580008091C00085FB882780F908958091C00084
:1005900086FB882780F991E089270895E0ECF0E058
:1005A000908195FFFDCF8093C6000895CF92DF9292
:1005B000FF920F931F93CF93DF93EC01AE81BF8126
:1005C000EB01CC0FDD1FC60FD71FCA0FDB1FFA8050
:1005D000FC0144815581E6E0E69F9001E79F300DE4
:1005E00011248A01020F131FF80122813381F901BE
:1005F00021813281F80104811581201B310BE881B2
:100600002E1B3109EC01EA81FB8100811181FA0185
:1006100040E050E04017510739F146175707F9F00D
:1006200012968C911297F8121AC0808185588230E8
:10063000E8F0C480D58082819381EC0189819A8120
:10064000C816D90660F48C199D09CC91D0E0C81762
:10065000D90728F48C1B9D0B2817390738F04F5FFA
:100660005F4F13963696D6CF80E001C081E0DF91D0
:10067000CF911F910F91FF90DF90CF90089520911F
:10068000630130916401820F931F90936401809302
:10069000630108950097D9F041155105C1F026E096
:1006A000629FB0011124DC011496ED91FC91159725
:1006B000E60FF71F21E0208314968D919C911597EA
:1006C000FC01E60FF71F5383428380E008958BE01F
:1006D00008952F923F924F925F926F927F928F92E6
:1006E0009F92AF92BF92CF92DF92EF92FF920F93C1
:1006F0001F93CF93DF93009709F47DC3EC01A12CE6
:10070000B12C812C912C212CD12C33E0C32E45E827
:10071000642E56E8752E67E0362E72E0472EE8E02C
:100720005E2EEA81FB81808191818816990608F00E
:10073000A5C17501EE0CFF1C0C811D810E0D1F1D46
:10074000D8018C91843009F4A2C038F4823001F1D0
:1007500008F049C0813059F08AC1853809F4C4C015
:10076000863809F4F8C0873009F081C139C1D80151
:100770001296ED91FC91139780818E7109F069C1F9
:100780004C928C819D81FC01EE0DFF1D518261C157
:10079000F8012181222329F10280F381E02D253007
:1007A00020F081819281D8010EC0D80114968D91DC
:1007B0009C911597418152818417950769F04817DC
:1007C000590730F4019715969C938E93149704C0A3
:1007D0000196F801958384832150D80111962C93BA
:1007E00038C1F80130C1D80114962D913C9115976C
:1007F00012968D919C911397DC0111964D915C910D
:1008000012972417350709F432C18E819F81421750
:100810005307E0F4241B350BDC01AA0DBB1D8C91A2
:1008200090E0058002C0959587950A94E2F7992794
:100830002817390708F41BC18481882309F417C1DC
:10084000F8013082EA81FB8124811AC0FC01EA0DA3
:10085000FB1D421B530B808190E04817590708F499
:1008600006C18281882331F0B401CE010E94D602F4
:100870008111FDC0E4E0D801EC93EA81FB81228183
:100880008C819D81FC01EE0DFF1D2183E2C0D8010A
:1008900014962D913C9115971296ED91FC9113971A
:1008A000818192818217930710F4CC92D7C0EE8198
:1008B000FF81EA0DFB1D821B930B208130E028177E
:1008C000390708F0C9C08281882331F0B401CE0114
:1008D0000E94D6028111CBC0F8018181882309F4DE
:1008E00068C081508183B5C0A881B9818085139685
:1008F0008C93EC81FD81EE0DFF1D44815581A28119
:10090000B38111968D919C91129784179507C0F031
:10091000AE81BF81AA0DBB1D6C91262F30E01196D0
:100920007C917F5F02C0359527957A95E2F7841B0D
:10093000950B621B262F30E02817390708F495C065
:100940007082EA81FB8122818C819D81FC01EE0D08
:10095000FF1D218342C0D80114966D917C9115979B
:100960001296ED91FC91139721813281261737075A
:1009700058F411968C911197811102C0CC9275C0D8
:100980008150F801818371C0EE81FF81EA0DFB1D6A
:100990008081482F50E091819F5F02C05595479517
:1009A0009A95E2F7261B370B841B90E0821793077A
:1009B00060F4D8016C92EA81FB8123818C819D8156
:1009C000FC01EE0DFF1D218350C0F80181818111D2
:1009D00002C0C0824AC0815081832224239439C03E
:1009E000D80114962D913C91159712968D919C915A
:1009F0001397DC0111968D919C91129782179307A2
:100A000058F5281B390BAE81BF81AA0DBB1D8C91F7
:100A100090E0058002C0959587950A94E2F79927A2
:100A200028173907C8F0D80111968C9111978111B8
:100A30000CC0E1E0EC938C819D81FC01EE0DFF1D6B
:100A40000280F381E02DC08212C08150D80111963E
:100A50008C93DD24D3940BC0F801C0828C819D81DE
:100A6000FC01EE0DFF1D118202C022242394FFEF32
:100A70008F1A9F0A83E0A80EB11C53CEE881F9813A
:100A8000808187FF23C040E050E020E030E0EA8131
:100A9000FB81808191812817390798F4EC81FD81D1
:100AA000E40FF51FA281B3818C9180FD05C0908178
:100AB000977F11F081608C932F5F3F4F4A5F5F4FAC
:100AC000E6CFE881F98180818F778083D11007C0DC
:100AD000E881F98121106FC080818E7F6EC0EA812C
:100AE000FB8181858823A1F3E881F9818081806879
:100AF0008083EA81FB818185813051F740E050E0BD
:100B000020E030E096E0D92EEA81FB81608171819E
:100B100026173707E8F60C811D81FA01EE0FFF1F3B
:100B2000E00FF11F8081982F977FA1F1853811F098
:100B30008330B1F5EE80FF80D701A40FB51F129668
:100B4000BC90BB2039F180E090E0C12C861797075C
:100B5000F8F428173907D1F0D89ED001D99EB00DEE
:100B60001124A00FB11FAC91A43011F0A63871F47C
:100B7000DC01AA0FBB1FA80FB91FAE0DBF1D129637
:100B8000AC91BA1203C0CB01CC24C3940196DECF42
:100B9000C11006C00280F381E02D80818E7F05C0E8
:100BA0000280F381E02D8081816080832F5F3F4F41
:100BB0004D5F5F4FA9CF8081816080838091630109
:100BC00090916401E881F98121813281A901485322
:100BD0005F4F4817590738F4821B930BAA24A3943C
:100BE000A3E0BA2E44C08217930710F080E004C13E
:100BF000821B930B0197893C9105C0F3EFCF885C72
:100C00009109E881F9812181328128533F4F328354
:100C100021832381211196C02481222311F02150A8
:100C20002483E881F9812581222311F02150258335
:100C30008A809B80D40116962C91169721111BC097
:100C40008A809B80F4012781211148C0EA81FB81C1
:100C50002381222361F020E030E0A0E0B0E0EA81CF
:100C6000FB8140815181A417B50708F46EC0893C0F
:100C7000910528F6BBCF08811981F8012481211143
:100C8000DFCFED90FC9060E070E040E050E04E156A
:100C90005F05F1F0EC81FD81E60FF71F2081233025
:100CA00011F0283081F424813581C280D380D601AF
:100CB0001196CD90DC9012972C153D0520F42F5FF6
:100CC0003F4F358324834F5F5F4F6A5F7F4FDFCF96
:100CD000F4012681D80114962C93B2CF0881198192
:100CE000D80115962C912111B1CFE080F18060E000
:100CF00070E040E050E04E155F05F1F0EC81FD81C1
:100D0000E60FF71F2081233011F0283081F4248171
:100D10003581C280D380D6011196CD90DC90129798
:100D2000C216D30620F421503109358324834F5F46
:100D30005F4F6A5F7F4FDFCFF4012781D80115969F
:100D40002C9384CF2150238381CFA901440F551FB9
:100D5000EC81FD81E40FF51F6081653809F047C023
:100D60006181662319F06150618341C0A0826C816A
:100D70007D81FB01E40FF51F0280F381E02DB0823D
:100D8000EE81FF81E20FF31FD280DD2081F140E090
:100D900050E000E010E0EA81FB816081718106177C
:100DA000170728F5EE81FF81E40FF51F6281D61247
:100DB00019C0BA01660F771FEC81FD814F01860EC5
:100DC000971EF401E280F380F701F080F0FE0AC084
:100DD000F401A082EC81FD81E60FF71F0280F38110
:100DE000E02DB0820F5F1F4F4D5F5F4FD4CF119644
:100DF0002D5F3F4F34CF8BE0DF91CF911F910F914B
:100E0000FF90EF90DF90CF90BF90AF909F908F902A
:100E10007F906F905F904F903F902F9008952F920A
:100E20003F924F925F926F927F928F929F92AF927A
:100E3000BF92CF92DF92EF92FF920F931F93CF93C7
:100E4000DF93CDB7DEB72C970FB6F894DEBF0FBE99
:100E5000CDBF2C01009709F463C1DC0112962D90DF
:100E60003C901397F1017280ED91FC916180D1016A
:100E700017968C911797E72CF12CFC82EB82262D8C
:100E800030E0882309F4A9C08D909C905701AA0CEA
:100E9000BB1C6901CC0CDD1CE12CF12C40E050E0C6
:100EA00000E010E00815190549F1848195818E0D47
:100EB0009F1DDC0111966D917C9112978281938127
:100EC0008C0D9D1DDC018D919C918617970728F450
:100ED000DB01A81BB90BCD0105C06817790730F4F9
:100EE000861B970B4817590708F4AC010F5F1F4F7B
:100EF000B5E0EB0EF11CCA0CDB1CD4CFD101189667
:100F00008C91682F70E06417750708F057C0068051
:100F1000F781E02DE20FF31F80818F5F8083F20164
:100F200040815181A281B381FA018181468157813B
:100F3000FA01E80FF11D908119968C911997981379
:100F40004CC015960D911C911697D801A20FB31F96
:100F50008C91882311F0815001C08FE0F80161E08D
:100F600070E040E050E0EB80FC804E155F0560F4DF
:100F70004217530729F09081981302C060E070E097
:100F80004F5F5F4F3196EFCF672B19F38C9380E063
:100F900090E0D2011296ED91FC911397428150E0BE
:100FA00084179507D0F4D201ED91FC910680F7816A
:100FB000E02DE80FF91F10820196EBCF869590E0A7
:100FC0004817590750F40680F781E02DE20FF31F10
:100FD0008081882311F081508083F2010280F381A7
:100FE000E02DFA83E983EB80FC80EE0CFF1CFC8291
:100FF000EB82B901660F771F7E836D83D72CD69461
:10100000D39440E050E020E030E0E12CF12C8D2D35
:1010100090E098878F83A981BA818D919C91E81681
:10102000F90608F068C0D201ED91FC91A481B58168
:10103000BD01620F731F7C876B87DB018C918C7104
:1010400009F04FC011966D917C9112978281938126
:10105000840F951FED81FE81E80FF91F7183608376
:10106000A12CB12CC12CC714C0F5FC01EC0DF11D55
:10107000EC0DF11D9A87898799249394812C312C4A
:101080007314C9F0C31479F0A985BA850D911C9128
:10109000608171810617170711F4939404C0061735
:1010A000170708F48394339469857A856E5F7F4FC0
:1010B0007A876987E5CF9D1458F48D1460F4692D03
:1010C00070E0680D711DAF81B8856A177B071CF051
:1010D000A080B180C72CC394C6CFEB85FC85B282BB
:1010E000A182FFEFEF1AFF0A2B5F3F4F6B817C81DC
:1010F000460F571F90CF6394671408F0612CE98165
:10110000FA81A381B48185819681FC01E60DF11DF0
:1011100080818C93D201ED91FC91618280E001C0CD
:101120008BE02C960FB6F894DEBF0FBECDBFDF91DB
:10113000CF911F910F91FF90EF90DF90CF90BF90D4
:10114000AF909F908F907F906F905F904F903F9067
:101150002F90089580916C0190916D01A0918F0165
:10116000B0919001ED91FC9111974081518125E062
:10117000289FB001299F700D112420E030E08417D2
:101180009507A8F41496ED91FC911597E20FF31FC3
:10119000E60FF71FE0812B5F3F4FE0FD02C0019695
:1011A000EECF90936D0180936C0180E008951092D2
:1011B0006D0110926C0181E008954AE0489F900112
:1011C000499F300D1124E0918F01F0919001028030
:1011D000F381E02DE20FF31F42814093F800E0918C
:1011E0008F01F09190010280F381E02DE20FF31F57
:1011F00043814093F900E0918F01F09190010280CA
:10120000F381E02DE20FF31F44814093FA00E09157
:101210008F01F09190010280F381E02DE20FF31F26
:1012200040814093F200E0918F01F09190010280A3
:10123000F381E02DE20FF31F41814093F30065E05D
:10124000689FA001699F500D1124E0918F01F091DA
:1012500090010480F581E02DE40FF51F83818093D8
:10126000E500E0918F01F09190010480F581E02D7F
:10127000E40FF51F8381948188279F739093E60084
:10128000A0918F01B09190011496ED91FC9115976A
:10129000E40FF51F808181FD608314968D919C91F0
:1012A0001597FC01E40FF51F80818C7171F4129683
:1012B000ED91FC911397E20FF31FE085E295EF703B
:1012C000F0E0EA5AFE4F808101C08FE38093E7008F
:1012D000E0918F01F09190010280F381E02DE20F07
:1012E000F31F86818B3F10F48C5F01C08FEF8093DA
:1012F000E800E0918F01F09190010280F381E02DF0
:10130000E20FF31F8781807F9185892B8093E40012
:10131000E0918F01F091900182819381FC01E20FB5
:10132000F31F87818F708093E10082E18093E0005A
:101330008091E90081608093E90008954F925F9267
:101340006F927F928F929F92AF92BF92CF92DF92D5
:10135000EF92FF920F931F93CF93DF9380916B01D6
:10136000882309F431C1A0918F01B0919001E090E0
:101370009101F0909201412C512C60E070E000E06E
:1013800010E080E06624639491E8792EAA24AA9460
:10139000BB24B394CD90DC901197F601208131816C
:1013A0000217130708F00CC1E701299139917E015A
:1013B0001496ED91FC911597E60FF71F40814C7143
:1013C00050E056954795569547954115510521F0A2
:1013D00041305105C1F0EBC012964D915C911397CD
:1013E000440D551DEA0198859F704985941710F4A6
:1013F000491B01C040E002C0369527954A95E2F7A7
:1014000032832183D5C012964D915C911397440D80
:10141000551DEA01098402C0369527950A94E2F722
:1014200032832183438154812115D2E03D0720F08E
:101430002F5F314091E005C0E501C21BD30B9E0137
:1014400090E0E601DA80D0E4DD1205C036952795FC
:10145000992319F009C0992339F04F3F9FE35907A9
:1014600031F470828EE007C08824839401C0812CFF
:101470002A30310598F41496ED91FC911597E60FFA
:10148000F71F208127FF60821496ED91FC9115973C
:10149000E60FF71F5F73548343838AC06A01CC242D
:1014A000C0E3DC229D2C9294DFE09D226A01CC24D3
:1014B000DFE0DD229D2D6A01C0EFCC22DD2454E067
:1014C000D694C7945A95E1F75C2D4F70811032C0C5
:1014D000203D310560F0D3E09D1649F093942F5CD8
:1014E0003109F6CF9F3041F09F5F255131092631F8
:1014F0003105C0F79F3069F493E0991202C09FE074
:1015000008C0939495E005C05F3049F05F5F2250BA
:10151000310923303105C0F75F3009F05BC09F30DF
:1015200009F454C09F5F55E055C0992061F09A942A
:101530002F5C3109203D3105C0F705C0992341F0EA
:1015400091502551310926313105C0F791110CC058
:10155000911002C090E008C09A949AE005C055230B
:1015600041F051502250310923303105C0F751115B
:101570000DC09923B9F191505AE023303105D0F6CE
:1015800005C02330310558F14FE05FE0292D30E0F0
:10159000322F22273295307F392B242BC0E15C9FDC
:1015A00060011124C22AD32AD482C38201C0FFCF92
:1015B0000F5F1F4F6B5F7F4FDAE04D0E511CEACE7D
:1015C00092E090936B0110C083E00EC053E095163B
:1015D000C1F25FE02330310508F07ACFD7CF5FE06A
:1015E0004FE0D4CF50E0D2CFDF91CF911F910F9138
:1015F000FF90EF90DF90CF90BF90AF909F908F9033
:101600007F906F905F904F9008958F929F92AF92CE
:10161000BF92CF92DF92EF92FF92CF93DF9300972A
:1016200009F46CC0DC01ED91FC91C080D180E12C0B
:10163000F12CA0E0B0E040E050E0BA0120E030E062
:10164000AC15BD05B1F0EC01EA81FB81EE0DFF1D8B
:10165000A080B1802A293B2982809380A480B58014
:10166000482959296A297B291196DAE0ED0EF11CE7
:10167000E7CF411551056105710509F441C0E091BD
:101680006B016A017B01CC24EE24FF24DB01CA013B
:1016900088279927BB27E11115C02093F0003093CC
:1016A000F1004093F400CD2CDE2CEF2CFF24C092EF
:1016B000F500CD01AA27BB278093F60081E0809337
:1016C0006B011AC0E091F0002E2B2093F0002091C6
:1016D000F100232B2093F1002091F400422B409342
:1016E000F4002091F5002D292093F5002091F600BB
:1016F000822F8A2B8093F60080E003C08BE001C02C
:1017000082E0DF91CF91FF90EF90DF90CF90BF907C
:10171000AF909F908F900895009731F09093920131
:101720008093910180E008958BE00895CF93DF933B
:1017300000D000D0CDB7DEB710926F0110927001CB
:1017400010927101109272016115710509F4DBC0EC
:10175000009709F4D8C020916B01222309F4D5C069
:10176000243009F093C010926E018091E90080FF4F
:101770008BC02091E80030E0A6E0B0E00E942F0D81
:1017800060936F0170937001809371019093720167
:101790002091E3002F70DC01CB01820F911DA11D70
:1017A000B11D80936F0190937001A0937101B0936C
:1017B00072012091E400277004C0880F991FAA1FAE
:1017C000BB1F2A95D2F70E96A11DB11D80936F0104
:1017D00090937001A0937101B09372012091E10088
:1017E000237004C0880F991FAA1FBB1F2A95D2F728
:1017F00022E0B695A795979587952A95D1F780937E
:101800006F0190937001A0937101B09372011982DE
:101810001A821B821C8221E049815A816B817C8162
:10182000481759076A077B07B0F430916E013323DC
:1018300029F089839A83AB83BC8320E049815A8154
:101840006B817C814F5F5F4F6F4F7F4F49835A831E
:101850006B837C83E1CF2223B9F08091E90080FF84
:1018600013C01092E000000082E18093E0000000CD
:1018700081E08093E9008091670190916801019671
:10188000909368018093670181E042C0909390013A
:1018900080938F017093660160936501DC01ED9187
:1018A000FC918281803411F488E003C0803879F59E
:1018B0008AE08093E200E0918F01F0919001019025
:1018C000F081E02D8481803108F080E18093E30095
:1018D00081E084BB8093740010926D0110926C01C2
:1018E0000E94AA0881110BC084E080936B01809153
:1018F0006C0190916D010E94DD0880E009C082E0DA
:1019000080936B0105C08BE003C083E001C082E0DF
:101910000F900F900F900F90DF91CF910895009747
:10192000C9F0DC01ED91FC911197208131812617DE
:10193000370790F045E0469F9001479F300D1124F6
:101940001496ED91FC911597E20FF31F81E08083CF
:1019500080E008958BE0089582E008950097D1F12A
:10196000DC01ED91FC911197208131812617370719
:1019700098F122811496ED91FC911597203459F439
:1019800085E0869FD001879FB00D1124AE0FBF1F49
:1019900084E392E00CC0203881F485E0869FD0017A
:1019A000879FB00D1124AE0FBF1F87E695E01496F8
:1019B0009C938E93139780E001C082E095E0969F00
:1019C0009001979F300D1124E20FF31F90819260D8
:1019D000908308958BE0089582E008951092E000CE
:1019E00081E080936E018091EE006091EF00209184
:1019F0006C0130916D01A901440F551FE0919101D7
:101A0000F0919201E40FF51F90E0962B9183808373
:101A10008091690190916A01019690936A01809387
:101A20006901892B21F410926801109267012F5FE0
:101A30003F4F30936D0120936C010E94AA088111E1
:101A400009C084E080936B0180916C0190916D01DD
:101A50000C94DD08E0916501F09166010994A29F64
:101A6000B001B39FC001A39F700D811D1124911D72
:101A7000B29F700D811D1124911D0895F894FFCF20
:101A80005FB400864A03EB00000000000000AA5586
:101A9000016EA079011E0189011B011401000100E2
:101AA00004000500140514012C0134010000730129
:101AB00082017F0101000355013E01010F06000173
:101AC0000251014701820100008000000000010076
:0C1AD0000401008030003F1C0B050301E6
:00000001FF
